{
  "_format": "hh-sol-artifact-1",
  "contractName": "Vendor",
  "sourceName": "contracts/Vendor.sol",
  "abi": [
    {
      "inputs": [
        {
          "internalType": "address",
          "name": "_tokenAddress",
          "type": "address"
        }
      ],
      "stateMutability": "nonpayable",
      "type": "constructor"
    },
    {
      "anonymous": false,
      "inputs": [
        {
          "indexed": false,
          "internalType": "address",
          "name": "buyer",
          "type": "address"
        },
        {
          "indexed": false,
          "internalType": "uint256",
          "name": "amountOfETH",
          "type": "uint256"
        },
        {
          "indexed": false,
          "internalType": "uint256",
          "name": "amountOfToken",
          "type": "uint256"
        }
      ],
      "name": "BuyTokens",
      "type": "event"
    },
    {
      "anonymous": false,
      "inputs": [
        {
          "indexed": false,
          "internalType": "address",
          "name": "seller",
          "type": "address"
        },
        {
          "indexed": false,
          "internalType": "uint256",
          "name": "amountOfToken",
          "type": "uint256"
        },
        {
          "indexed": false,
          "internalType": "uint256",
          "name": "amountOfETH",
          "type": "uint256"
        }
      ],
      "name": "SellTokens",
      "type": "event"
    },
    {
      "inputs": [],
      "name": "buyTokens",
      "outputs": [],
      "stateMutability": "payable",
      "type": "function"
    },
    {
      "inputs": [],
      "name": "owner",
      "outputs": [
        {
          "internalType": "address",
          "name": "",
          "type": "address"
        }
      ],
      "stateMutability": "view",
      "type": "function"
    },
    {
      "inputs": [
        {
          "internalType": "uint256",
          "name": "tokenAmountToSell",
          "type": "uint256"
        }
      ],
      "name": "sellTokens",
      "outputs": [],
      "stateMutability": "nonpayable",
      "type": "function"
    },
    {
      "inputs": [],
      "name": "token",
      "outputs": [
        {
          "internalType": "contract JayToken",
          "name": "",
          "type": "address"
        }
      ],
      "stateMutability": "view",
      "type": "function"
    },
    {
      "inputs": [],
      "name": "tokenPerETH",
      "outputs": [
        {
          "internalType": "uint256",
          "name": "",
          "type": "uint256"
        }
      ],
      "stateMutability": "view",
      "type": "function"
    },
    {
      "inputs": [],
      "name": "withdrawETH",
      "outputs": [],
      "stateMutability": "nonpayable",
      "type": "function"
    },
    {
      "inputs": [],
      "name": "withdrawTokens",
      "outputs": [],
      "stateMutability": "nonpayable",
      "type": "function"
    },
    {
      "stateMutability": "payable",
      "type": "receive"
    }
  ],
  "bytecode": "0x60806040526101f46002553480156200001757600080fd5b50604051620016b6380380620016b683398181016040528101906200003d91906200012f565b336000806101000a81548173ffffffffffffffffffffffffffffffffffffffff021916908373ffffffffffffffffffffffffffffffffffffffff16021790555080600160006101000a81548173ffffffffffffffffffffffffffffffffffffffff021916908373ffffffffffffffffffffffffffffffffffffffff1602179055505062000161565b600080fd5b600073ffffffffffffffffffffffffffffffffffffffff82169050919050565b6000620000f782620000ca565b9050919050565b6200010981620000ea565b81146200011557600080fd5b50565b6000815190506200012981620000fe565b92915050565b600060208284031215620001485762000147620000c5565b5b6000620001588482850162000118565b91505092915050565b61154580620001716000396000f3fe6080604052600436106100745760003560e01c8063d0febe4c1161004e578063d0febe4c146100f3578063d207b7aa146100fd578063e086e5ec14610128578063fc0c546a1461013f57610083565b80636c11bcd3146100885780638d8f2adb146100b15780638da5cb5b146100c857610083565b366100835761008161016a565b005b600080fd5b34801561009457600080fd5b506100af60048036038101906100aa9190610bb4565b6103c0565b005b3480156100bd57600080fd5b506100c6610709565b005b3480156100d457600080fd5b506100dd610982565b6040516100ea9190610c22565b60405180910390f35b6100fb61016a565b005b34801561010957600080fd5b506101126109a6565b60405161011f9190610c4c565b60405180910390f35b34801561013457600080fd5b5061013d6109ac565b005b34801561014b57600080fd5b50610154610b53565b6040516101619190610cc6565b60405180910390f35b600034116101ad576040517f08c379a00000000000000000000000000000000000000000000000000000000081526004016101a490610d3e565b60405180910390fd5b6000600254346101bd9190610d8d565b905080600160009054906101000a900473ffffffffffffffffffffffffffffffffffffffff1673ffffffffffffffffffffffffffffffffffffffff166370a08231306040518263ffffffff1660e01b815260040161021b9190610c22565b602060405180830381865afa158015610238573d6000803e3d6000fd5b505050506040513d601f19601f8201168201806040525081019061025c9190610de4565b101561029d576040517f08c379a000000000000000000000000000000000000000000000000000000000815260040161029490610e5d565b60405180910390fd5b6000600160009054906101000a900473ffffffffffffffffffffffffffffffffffffffff1673ffffffffffffffffffffffffffffffffffffffff1663a9059cbb33846040518363ffffffff1660e01b81526004016102fc929190610e7d565b6020604051808303816000875af115801561031b573d6000803e3d6000fd5b505050506040513d601f19601f8201168201806040525081019061033f9190610ede565b905080610381576040517f08c379a000000000000000000000000000000000000000000000000000000000815260040161037890610f57565b60405180910390fd5b7f0a37b72bb67eee30e09084cf386f8a17817c57f620c3ab95fb25d6a20356ec773334846040516103b493929190610f77565b60405180910390a15050565b60008111610403576040517f08c379a00000000000000000000000000000000000000000000000000000000081526004016103fa90611020565b60405180910390fd5b80600160009054906101000a900473ffffffffffffffffffffffffffffffffffffffff1673ffffffffffffffffffffffffffffffffffffffff166370a08231336040518263ffffffff1660e01b815260040161045f9190610c22565b602060405180830381865afa15801561047c573d6000803e3d6000fd5b505050506040513d601f19601f820116820180604052508101906104a09190610de4565b10156104e1576040517f08c379a00000000000000000000000000000000000000000000000000000000081526004016104d89061108c565b60405180910390fd5b6000600254826104f191906110db565b905080471015610536576040517f08c379a000000000000000000000000000000000000000000000000000000000815260040161052d90611158565b60405180910390fd5b6000600160009054906101000a900473ffffffffffffffffffffffffffffffffffffffff1673ffffffffffffffffffffffffffffffffffffffff166323b872dd3330866040518463ffffffff1660e01b815260040161059793929190611178565b6020604051808303816000875af11580156105b6573d6000803e3d6000fd5b505050506040513d601f19601f820116820180604052508101906105da9190610ede565b90508061061c576040517f08c379a000000000000000000000000000000000000000000000000000000000815260040161061390611221565b60405180910390fd5b60003373ffffffffffffffffffffffffffffffffffffffff168360405161064290611272565b60006040518083038185875af1925050503d806000811461067f576040519150601f19603f3d011682016040523d82523d6000602084013e610684565b606091505b50509050806106c8576040517f08c379a00000000000000000000000000000000000000000000000000000000081526004016106bf906112d3565b60405180910390fd5b7fa24838acd4af5195a2396965dae5abf54e84e8c19f5698bb966ae64e29994ee53385856040516106fb93929190610f77565b60405180910390a150505050565b60008054906101000a900473ffffffffffffffffffffffffffffffffffffffff1673ffffffffffffffffffffffffffffffffffffffff163373ffffffffffffffffffffffffffffffffffffffff1614610797576040517f08c379a000000000000000000000000000000000000000000000000000000000815260040161078e9061133f565b60405180910390fd5b6000600160009054906101000a900473ffffffffffffffffffffffffffffffffffffffff1673ffffffffffffffffffffffffffffffffffffffff166370a08231306040518263ffffffff1660e01b81526004016107f49190610c22565b602060405180830381865afa158015610811573d6000803e3d6000fd5b505050506040513d601f19601f820116820180604052508101906108359190610de4565b90506000811161087a576040517f08c379a0000000000000000000000000000000000000000000000000000000008152600401610871906113ab565b60405180910390fd5b6000600160009054906101000a900473ffffffffffffffffffffffffffffffffffffffff1673ffffffffffffffffffffffffffffffffffffffff1663a9059cbb60008054906101000a900473ffffffffffffffffffffffffffffffffffffffff16846040518363ffffffff1660e01b81526004016108f9929190610e7d565b6020604051808303816000875af1158015610918573d6000803e3d6000fd5b505050506040513d601f19601f8201168201806040525081019061093c9190610ede565b90508061097e576040517f08c379a000000000000000000000000000000000000000000000000000000000815260040161097590611417565b60405180910390fd5b5050565b60008054906101000a900473ffffffffffffffffffffffffffffffffffffffff1681565b60025481565b60008054906101000a900473ffffffffffffffffffffffffffffffffffffffff1673ffffffffffffffffffffffffffffffffffffffff163373ffffffffffffffffffffffffffffffffffffffff1614610a3a576040517f08c379a0000000000000000000000000000000000000000000000000000000008152600401610a319061133f565b60405180910390fd5b600047905060008111610a82576040517f08c379a0000000000000000000000000000000000000000000000000000000008152600401610a7990611483565b60405180910390fd5b60008060009054906101000a900473ffffffffffffffffffffffffffffffffffffffff1673ffffffffffffffffffffffffffffffffffffffff1682604051610ac990611272565b60006040518083038185875af1925050503d8060008114610b06576040519150601f19603f3d011682016040523d82523d6000602084013e610b0b565b606091505b5050905080610b4f576040517f08c379a0000000000000000000000000000000000000000000000000000000008152600401610b46906114ef565b60405180910390fd5b5050565b600160009054906101000a900473ffffffffffffffffffffffffffffffffffffffff1681565b600080fd5b6000819050919050565b610b9181610b7e565b8114610b9c57600080fd5b50565b600081359050610bae81610b88565b92915050565b600060208284031215610bca57610bc9610b79565b5b6000610bd884828501610b9f565b91505092915050565b600073ffffffffffffffffffffffffffffffffffffffff82169050919050565b6000610c0c82610be1565b9050919050565b610c1c81610c01565b82525050565b6000602082019050610c376000830184610c13565b92915050565b610c4681610b7e565b82525050565b6000602082019050610c616000830184610c3d565b92915050565b6000819050919050565b6000610c8c610c87610c8284610be1565b610c67565b610be1565b9050919050565b6000610c9e82610c71565b9050919050565b6000610cb082610c93565b9050919050565b610cc081610ca5565b82525050565b6000602082019050610cdb6000830184610cb7565b92915050565b600082825260208201905092915050565b7f596f75206e65656420746f2073656e6420736f6d652045544800000000000000600082015250565b6000610d28601983610ce1565b9150610d3382610cf2565b602082019050919050565b60006020820190508181036000830152610d5781610d1b565b9050919050565b7f4e487b7100000000000000000000000000000000000000000000000000000000600052601160045260246000fd5b6000610d9882610b7e565b9150610da383610b7e565b9250828202610db181610b7e565b91508282048414831517610dc857610dc7610d5e565b5b5092915050565b600081519050610dde81610b88565b92915050565b600060208284031215610dfa57610df9610b79565b5b6000610e0884828501610dcf565b91505092915050565b7f56656e646f722068617320696e73756666696369656e7420746f6b656e730000600082015250565b6000610e47601e83610ce1565b9150610e5282610e11565b602082019050919050565b60006020820190508181036000830152610e7681610e3a565b9050919050565b6000604082019050610e926000830185610c13565b610e9f6020830184610c3d565b9392505050565b60008115159050919050565b610ebb81610ea6565b8114610ec657600080fd5b50565b600081519050610ed881610eb2565b92915050565b600060208284031215610ef457610ef3610b79565b5b6000610f0284828501610ec9565b91505092915050565b7f4661696c656420746f207472616e7366657220746f6b656e7300000000000000600082015250565b6000610f41601983610ce1565b9150610f4c82610f0b565b602082019050919050565b60006020820190508181036000830152610f7081610f34565b9050919050565b6000606082019050610f8c6000830186610c13565b610f996020830185610c3d565b610fa66040830184610c3d565b949350505050565b7f5370656369667920616e20616d6f756e74206f6620746f6b656e20677265617460008201527f6572207468616e207a65726f0000000000000000000000000000000000000000602082015250565b600061100a602c83610ce1565b915061101582610fae565b604082019050919050565b6000602082019050818103600083015261103981610ffd565b9050919050565b7f496e73756666696369656e7420746f6b656e2062616c616e6365000000000000600082015250565b6000611076601a83610ce1565b915061108182611040565b602082019050919050565b600060208201905081810360008301526110a581611069565b9050919050565b7f4e487b7100000000000000000000000000000000000000000000000000000000600052601260045260246000fd5b60006110e682610b7e565b91506110f183610b7e565b925082611101576111006110ac565b5b828204905092915050565b7f56656e646f7220686173206e6f7420656e6f756768204554482066756e647300600082015250565b6000611142601f83610ce1565b915061114d8261110c565b602082019050919050565b6000602082019050818103600083015261117181611135565b9050919050565b600060608201905061118d6000830186610c13565b61119a6020830185610c13565b6111a76040830184610c3d565b949350505050565b7f4661696c656420746f207472616e7366657220746f6b656e732066726f6d207560008201527f73657220746f2076656e646f7200000000000000000000000000000000000000602082015250565b600061120b602d83610ce1565b9150611216826111af565b604082019050919050565b6000602082019050818103600083015261123a816111fe565b9050919050565b600081905092915050565b50565b600061125c600083611241565b91506112678261124c565b600082019050919050565b600061127d8261124f565b9150819050919050565b7f4661696c656420746f2073656e642045544820746f2074686520757365720000600082015250565b60006112bd601e83610ce1565b91506112c882611287565b602082019050919050565b600060208201905081810360008301526112ec816112b0565b9050919050565b7f4f6e6c79204f776e65722063616e206163636573730000000000000000000000600082015250565b6000611329601583610ce1565b9150611334826112f3565b602082019050919050565b600060208201905081810360008301526113588161131c565b9050919050565b7f56656e646f7220686173206e6f20746f6b656e73206c65667400000000000000600082015250565b6000611395601983610ce1565b91506113a08261135f565b602082019050919050565b600060208201905081810360008301526113c481611388565b9050919050565b7f4661696c656420746f20776974686472617720746f6b656e7300000000000000600082015250565b6000611401601983610ce1565b915061140c826113cb565b602082019050919050565b60006020820190508181036000830152611430816113f4565b9050919050565b7f4e6f2045544820746f2077697468647261770000000000000000000000000000600082015250565b600061146d601283610ce1565b915061147882611437565b602082019050919050565b6000602082019050818103600083015261149c81611460565b9050919050565b7f5769746864726177616c204661696c6564000000000000000000000000000000600082015250565b60006114d9601183610ce1565b91506114e4826114a3565b602082019050919050565b60006020820190508181036000830152611508816114cc565b905091905056fea2646970667358221220b698e83a3249d4f3253ba018e5154f255bc11fae2ea29eec3948412a1487251364736f6c63430008140033",
  "linkReferences": {},
  "deployedLinkReferences": {}
}